:020000040800F2
:10000000008001201D120008590500085B0500084A
:100010005D0500085F05000861050008000000009C
:100020000000000000000000000000009501000832
:10003000630500080000000065050008670500086A
:100040006D1200086D1200086D1200086D12000894
:100050006D1200086D1200086D1200086D12000884
:100060006D1200086D1200086D1200086D12000874
:100070006D1200086D1200086D1200086D12000864
:100080006D1200086D1200086D12000800000000DB
:100090000000000000000000000000006D120008D9
:1000A0006D1200086D1200086D1200086D12000834
:1000B0006D1200086D1200086D1200086D12000824
:1000C0006D1200086D1200086D1200086D12000814
:1000D0006D1200086D1200086D120008000000008B
:1000E0006D1200086D1200086D120008000000007B
:1000F0000000000000000000000000006D12000879
:10010000000000006D1200086D1200086D1200085A
:1001100000000000000000000000000000000000DF
:100120006D1200086D1200086D1200086D120008B3
:100130006D12000800000000000000000000000038
:100140000000000000000000000000006D12000828
:100150006D1200086D1200086D1200086D12000883
:100160006D1200086D120008000000000000000081
:10017000000000000000000000000000000000007F
:10018000000000006D1200080000000000000000E8
:040190006D120008E4
:100194001EF0040F0CBFEFF30880EFF3098000F0AA
:1001A40045B880BC80BCEFF309806FF0020EB0E864
:1001B400F00F80F30988704753B94AB9002908BF82
:1001C40000281CBF4FF0FF314FF0FF3000F00CB897
:1001D400ADF1080C6DE904CE01F024FDDDF804E076
:1001E400DDE9022304B07047704700BF10B5054C29
:1001F400237833B9044B13B10448AFF300800123CF
:10020400237010BD6800002000000000E41E0008F8
:1002140008B5034B1BB103490348AFF3008008BD85
:10022400000000006C000020E41E000808B583698B
:1002340013F8023C112B0BD0152B0DD0032B00D03F
:1002440008BD074B1B6883F30988FFF7AAFFF7E78C
:10025400044801F023F9F3E7034801F01FF9EFE73D
:100264008C000020FC1E0008081F0008084B1B68B7
:1002740001339A02B2F5804F07DC064A1068A0F5F4
:1002840080511160024A136070470020704700BF1C
:10029400840000208800002008B5024801F0FEF820
:1002A400FBE700BF141F000830B58BB00024059491
:1002B40006940794089409940194224B1A6B42F013
:1002C40004021A631A6B02F004020192019A029466
:1002D4001A6B42F080021A631A6B02F080020292D7
:1002E400029A03941A6B42F001021A631A6B02F029
:1002F40001020392039A04941A6B42F002021A63F5
:100304001B6B03F002030493049B0F4D2246202130
:10031400284600F0D5FA4FF4005305934FF4041324
:100324000693079405A9094800F0E6F920230593EC
:10033400012306930794089405A9284600F0DCF9E4
:100344000BB030BD003802400000024000080240FB
:1003540010B514464FF0FF3392B2024800F0EFFE9E
:10036400204610BD9000002003DF704772B6FEE700
:1003740008B50A480A4B03604FF4E1334360002395
:100384008360C36003610C2242618361C36100F036
:10039400A7FE00B908BDFFF7E9FF00BF90000020E9
:1003A4000044004000B595B03022002108A801F0B7
:1003B4007DF8002303930493059306930793019315
:1003C4001F4A116C41F080511164126C02F080528A
:1003D4000192019A02931B490A6822F4404242F4B2
:1003E40000420A600A6802F440420292029A022120
:1003F400089101220B9210220C920E910F931092ED
:100404004FF4A8731193042312930723139308A89A
:1004140000F05CFA80B90F230393022104910023B6
:1004240005934FF480520692079303A800F0B8FC9A
:1004340020B915B05DF804FBFFF798FFFFF796FFAE
:10044400003802400070004008B500F0BFF8FFF724
:10045400A9FFFFF729FFFFF78BFF00231A68A2F516
:1004640080600F490860A2F204420A604FF0807075
:1004740010600A68101F08600A4942F8041C07E06B
:1004840007490A68101F08600A2142F8041C013356
:100494000D2BF5DDFFF7EAFEFFF766FFFEE700BF71
:1004A4008C0000209D02000800B583B0002100915B
:1004B4000C4B5A6C42F480425A645A6C02F48042E7
:1004C4000092009A01911A6C42F080521A641B6CDB
:1004D40003F080530193019B072000F0D7F803B089
:1004E4005DF804FB0038024000B589B00023039393
:1004F40004930593069307930268144B9A4202D01F
:1005040009B05DF804FB0021019103F5FA331A6C7C
:1005140042F400321A641A6C02F400320192019A15
:1005240002911A6B42F001021A631B6B03F0010380
:100534000293029B0C230393022304930723079340
:1005440003A9034800F0D8F8DAE700BF00440040EC
:1005540000000240FEE7FEE7FEE7FEE7FEE7704725
:10056400704708B500F04CF808BD0000034AD2F803
:10057400883043F47003C2F88830704700ED00E01F
:1005840010B504460E4B1A784FF47A73B3FBF2F3AA
:100594000C4A1068B0FBF3F000F09AF868B90F2C1D
:1005A40001D901200AE0002221464FF0FF3000F07B
:1005B4007FF8054B1C60002000E0012010BD00BF47
:1005C40004000020000000200800002008B50B4BA8
:1005D4001A6842F400721A601A6842F480621A605F
:1005E4001A6842F480721A60032000F04FF8002069
:1005F400FFF7C6FFFFF758FF002008BD003C02408C
:10060400034A1168034B1B780B441360704700BF07
:10061400D400002004000020014B1868704700BF7C
:10062400D4000020002808DB0901C9B200F16040B1
:1006340000F5614080F80013704700F00F000901D5
:10064400C9B2014B1954704714ED00E000B500F035
:100654000700C0F1070CBCF1040F28BF4FF0040CD5
:10066400031D062B0FD9C31E4FF0FF3E0EFA0CF0EC
:1006740021EA000199400EFA03FE22EA0E0241EA41
:1006840002005DF804FB0023EEE70000074AD3688C
:1006940023F4E0631B041B0C000200F4E06003433A
:1006A40043F0BF6343F40033D360704700ED00E0D0
:1006B40010B50446054BD868C0F30220FFF7C6FF07
:1006C40001462046FFF7AEFF10BD00BF00ED00E07D
:1006D4000138B0F1807F0BD24FF0E0235861054A16
:1006E400F02182F823100020986107221A617047D4
:1006F4000120704700ED00E000230F2B00F2D780AB
:1007040070B582B065E085684FEA430E032404FAAD
:100714000EF425EA0405CC6804FA0EF42C43846034
:10072400446824EA02044A68C2F300129A4022434D
:1007340042605CE0DC08083450F8242003F007052C
:10074400AD004FF00F0E0EFA05FE22EA0E0E0A69F6
:10075400AA4042EA0E0240F824205CE0042200E0B1
:10076400002202FA0EF22A430234514D45F82420A5
:10077400504A94686FEA0C0224EA0C054E6816F499
:10078400801F01D04CEA04054A4CA560E46802EAE3
:1007940004054E6816F4001F01D04CEA0405454CCC
:1007A400E560646802EA04054E6816F4003F01D06F
:1007B4004CEA04053F4C6560246822404D6815F4FA
:1007C400803F01D04CEA04023A4C226001330F2BE3
:1007D4006BD801229A400C6804EA020C32EA040441
:1007E400F4D14C6804F00304013C012C8BD94A6811
:1007F40002F00302032A09D0C4685D000322AA4060
:1008040024EA02048A68AA402243C2604A6802F0C9
:100814000302022A8ED004684FEA430E032202FA2E
:100824000EF224EA02044A6802F0030202FA0EF20B
:10083400224302604A6812F4403FC7D0002201926A
:100844001D4A546C44F480445464526C02F4804253
:100854000192019A9C08A51C154A52F8255003F0F0
:10086400030E4FEA8E0E0F2202FA0EF225EA02055B
:10087400124A90423FF474AF02F5806290420ED067
:1008840002F5806290420CD002F5806290420AD058
:1008940002F5806290423FF461AF072261E70122D2
:1008A4005FE702225DE703225BE702B070BD704799
:1008B40000380140003C0140003802400000024082
:1008C4000AB181617047090481617047002800F012
:1008D400E08170B582B00446036813F0010F3BD089
:1008E4009F4B9B6803F00C03042B2CD09C4B9B6800
:1008F40003F00C03082B21D06368B3F5803F4FD07D
:10090400B3F5A02F52D0964B1A6822F480321A60A5
:100914001A6822F480221A606368002B50D0FFF713
:100924007BFE05468E4B1B6813F4003F14D1FFF782
:1009340073FE401B6428F5D90320B1E1884B5B6842
:1009440013F4800FD8D0864B1B6813F4003F03D0F8
:100954006368002B00F09F81236813F0020F54D0CA
:100964007F4B9B6813F00C0F3ED07D4B9B6803F0CC
:100974000C03082B33D0E368002B68D0794B012299
:100984001A60FFF749FE0546754B1B6813F0020F0A
:1009940054D1FFF741FE401B0228F5D903207FE123
:1009A4006F4A136843F480331360B5E76C4B1A68DD
:1009B40042F480221A601A6842F480321A60ABE76B
:1009C400FFF72AFE0546664B1B6813F4003FC3D0AD
:1009D400FFF722FE401B6428F5D9032060E1604B39
:1009E4005B6813F4800FC6D15D4B1B6813F0020FD4
:1009F40003D0E368012B40F05081594A136823F077
:100A0400F803216943EAC1031360236813F0080F54
:100A140042D063696BB3534B0122C3F8802EFFF7B6
:100A2400FBFD05464E4B5B6F13F0020F34D1FFF70D
:100A3400F3FD401B0228F5D9032031E1484A13682D
:100A440023F0F803216943EAC1031360DDE7454B52
:100A540000221A60FFF7E0FD0546414B1B6813F0C6
:100A6400020FD2D0FFF7D8FD401B0228F5D903208E
:100A740016E13C4B0022C3F8802EFFF7CDFD05465E
:100A8400374B5B6F13F0020F06D0FFF7C5FD401B19
:100A94000228F5D9032003E1236813F0040F77D06B
:100AA4002F4B1B6C13F0805F33D1002301932C4B2D
:100AB4001A6C42F080521A641B6C03F08053019349
:100AC400019B0125284B1B6813F4807F23D0A36866
:100AD400012B34D0052B38D0214B1A6F22F00102A0
:100AE4001A671A6F22F004021A67A368002B3DD01C
:100AF400FFF792FD06461A4B1B6F13F0020F46D107
:100B0400FFF78AFD801B41F288339842F3D9032012
:100B1400C6E00025D6E7144A136843F480731360D3
:100B2400FFF77AFD0646104B1B6813F4807FCED185
:100B3400FFF772FD801B0228F5D90320B0E0084AB4
:100B4400136F43F001031367CFE7054B1A6F42F0AD
:100B540004021A671A6F42F001021A67C5E700BF60
:100B6400003802400000474200700040FFF754FD87
:100B74000646524B1B6F13F0020F08D0FFF74CFDD3
:100B8400801B41F288339842F3D9032088E0EDB901
:100B9400A369002B00F08380484A926802F00C029B
:100BA400082A51D0022B17D0454B00221A66FFF7B2
:100BB40033FD0446414B1B6813F0007F42D0FFF71E
:100BC4002BFD001B0228F5D9032069E03B4A136C76
:100BD40023F080531364DBE7394B00221A66FFF7D6
:100BE4001BFD0546354B1B6813F0007F06D0FFF74D
:100BF40013FD401B0228F5D9032051E0E369226A62
:100C04001343626A43EA8213A26A5208013A43EA2E
:100C14000243E26A43EA0263284A5360284B0122F2
:100C24001A66FFF7F9FC0446244B1B6813F0007F97
:100C340006D1FFF7F1FC001B0228F5D903202FE0B1
:100C440000202DE000202BE0012B2BD01B4B5B68F8
:100C540003F48001E269914226D103F03F02216A44
:100C64008A4223D1616A47F6C0721A40B2EB811FEF
:100C74001ED103F44031A26A5208013AB1EB024F8B
:100C840018D103F07063E26AB3EB026F14D1002051
:100C940006E001207047012002E0012000E000206E
:100CA40002B070BD0120FBE70120F9E70120F7E75E
:100CB4000120F5E70120F3E70120F1E700380240C5
:100CC4000000474208B5334B9B6803F00C03042B28
:100CD4005BD0082B5BD12F4B5A6802F03F025B6854
:100CE40013F4800F2CD02B4B5868C0F388104FEAB4
:100CF400401CBCEB000C6EEB0E0E4FEA8E1343EA65
:100D04009C634FEA8C11B1EB0C0163EB0E03DB0027
:100D140043EA5173C90011EB000C43F1000359027B
:100D240000234FEA4C2041EADC51FFF745FA194B06
:100D34005B68C3F3014301335B00B0FBF3F027E0CE
:100D4400144B5868C0F388104FEA401CBCEB000CED
:100D54006EEB0E0E4FEA8E1343EA9C634FEA8C113E
:100D6400B1EB0C0163EB0E03DB0043EA5173C900E2
:100D740011EB000C43F10003990200234FEA8C208D
:100D840041EA9C51FFF718FAD1E7034800E0034811
:100D940008BD00BF0038024000127A000024F400AD
:100DA400002800F09B8070B50D4604464F4B1B682D
:100DB40003F007038B4208D2CBB24C4A137013687A
:100DC40003F007038B4240F08B80236813F0020F7B
:100DD40017D013F0040F04D0454A936843F4E0534A
:100DE4009360236813F0080F04D0414A936843F4D6
:100DF400604393603E4A936823F0F003A1680B4379
:100E04009360236813F0010F32D06368012B21D063
:100E14009A1E012A25D9364A126812F0020F61D0AF
:100E240033498A6822F0030213438B60FFF7F4FB13
:100E340006462F4B9B6803F00C036268B3EB820FEA
:100E440016D0FFF7E9FB801B41F288339842F0D9B2
:100E5400032042E0264A126812F4003FE0D1012048
:100E64003BE0234A126812F0007FD9D1012034E01C
:100E74001E4B1B6803F00703AB4207D9EAB21B4BB6
:100E84001A701B6803F00703AB422DD1236813F0DB
:100E9400040F06D0164A936823F4E053E1680B4329
:100EA4009360236813F0080F07D0114A936823F462
:100EB4006043216943EAC1039360FFF703FF0C4BCE
:100EC4009B68C3F303130B4AD35CD8400A4B1860E6
:100ED4000A4B1868FFF754FB002070BD01207047CF
:100EE4000120FAE70120F8E70120F6E7003C024080
:100EF400003802402C1F00080000002008000020D9
:100F0400014B1868704700BF0000002008B5FFF7C8
:100F1400F7FF044B9B68C3F38223034AD35CD84096
:100F240008BD00BF00380240241F000808B5FFF7C1
:100F3400E7FF044B9B68C3F34233034AD35CD840B6
:100F440008BD00BF00380240241F000810B5044645
:100F54000268136923F44053C1680B431361836827
:100F640002691A4343691A43C3691A430168CB6887
:100F740023F4164323F00C031343CB600268536934
:100F840023F4407381690B4353610368314A9342EC
:100F940006D002F58062934202D0FFF7B7FF01E06A
:100FA400FFF7C4FFE369B3F5004F29D0002103180C
:100FB40049411B1841F10001C90041EA5371DB00AA
:100FC400181863684FEA83024FEA937341F10001F2
:100FD400FFF7F2F8204AA2FB00314909642303FB1E
:100FE40011031B013233A2FB03235B0903F0F0025C
:100FF40002EB011203F00F03216813448B6010BD50
:101004000023021843EB0301121841F10001C90047
:1010140041EA5271D200101841F10001626892183D
:101024005B41FFF7C9F80C4AA2FB0031490964236C
:1010340003FB1103DB003233A2FB03235B095A00D9
:1010440002F4F87202EB011203F00703216813445F
:101054008B60D4E7001001401F85EB512DE9F84364
:1010640005460F4616469946DDF820802B681C6815
:1010740037EA04040CBF01240024B4422DD1B8F192
:10108400FF3FF3D0B8F1000F05D0FFF7C5FAA0EB8E
:1010940009004045EAD92A6802F10C0353E8003FED
:1010A40023F4D0730C3242E800310029F3D12A68CA
:1010B40002F1140353E8003F23F00103143242E821
:1010C40000310029F3D1202385F83D3085F83E30E6
:1010D400002385F83C30032000E00020BDE8F883BD
:1010E40058B310B5044690F83D300BB3242384F86C
:1010F4003D302268D36823F40053D3602046FFF7C1
:1011040025FF2268136923F490431361226853690D
:1011140023F02A0353612268D36843F40053D36055
:1011240000202064202384F83D3084F83E3010BD34
:1011340080F83C30FFF7D8F9D8E7012070472DE953
:10114400F04182B01E4690F83D30DBB2202B54D1E2
:1011540004460D469046002953D0002A53D090F8F7
:101164003C30012B51D0012380F83C300023036430
:10117400212380F83D30FFF74FFA0746A4F8248076
:10118400A4F82680A368B3F5805F05D04FF000086B
:10119400002384F83C3012E0236913B14FF00008B7
:1011A400F6E7A8460025F3E738F8023B2268C3F3C4
:1011B40008035360E28C92B2013A92B2E284E38C67
:1011C4009BB273B100963B46002280212046FFF774
:1011D40045FFE0B9002DE7D015F8012B23685A60CC
:1011E400E8E700963B46002240212046FFF736FF01
:1011F40078B9202384F83D3000E0022002B0BDE835
:10120400F0810120FAE70120F8E70220F6E7032045
:10121400F4E70320F2E70000DFF834D00D480E496C
:101224000E4A002302E0D458C4500433C4188C423C
:10123400F9D30B4A0B4C002301E013600432A242A1
:10124400FBD3FFF793F900F039F9FFF7FDF8704786
:101254000080012000000020680000204C1F0008CE
:101264006800002028020020FEE70000002310B5DB
:101274000446C0E90033C0E90433836081814366D6
:10128400C2818361194608225C3000F00FF90D4BCE
:1012940063620D4BA3620D4BE3620D4B23630D4B55
:1012A40024629C4206D003F16802944202D0D033F7
:1012B4009C4205D104F15800BDE8104000F022B969
:1012C40010BD00BFC5170008E71700081F18000865
:1012D40043180008D8000020024A0349034800F0DC
:1012E40069B800BF0C0000205D1700081C00002036
:1012F40041680C4B994210B5044601D000F02CFA19
:10130400A168094B994202D0204600F025FAE16811
:10131400064B994204D02046BDE8104000F01CBAA8
:1013240010BD00BFD800002040010020A80100200B
:1013340010B50B4B0B4C0C4A1A60204600220421BA
:10134400FFF794FF04F1680001220921FFF78EFFE3
:1013540004F1D0000222BDE810401221FFF786BF3D
:1013640010020020D8000020DD120008014800F01F
:10137400CAB800BF15020020014800F0C5B800BF7C
:101384001502002010B50446FFF7F0FF236A1BB1D5
:10139400BDE81040FFF7F0BF044B2362044B1B6809
:1013A400002BF5D1FFF7C4FFF2E700BFF5120008E8
:1013B400100200202DE9F84307468846144600260B
:1013C400D4E90195B9F1010905D52468002CF7D1B8
:1013D4003046BDE8F883AB89012B07D9B5F90E3047
:1013E400013303D029463846C04706436835E9E748
:1013F400036A70B5846805460E460BB9FFF7C2FF51
:10140400636EDB0705D4A389980502D4A06D00F0B0
:101414007AF8A389190702D52369002B35D121460F
:10142400284600F04FFA80B34FF0FF35636EDA07B9
:1014340005D4A3899B0502D4A06D00F065F8284665
:1014440070BD002B15DB23685A1C22601970A36839
:1014540016F8011F013BA3600029F2D1002B16DA14
:1014640022460A21284600F0EEF90130DCD00A2594
:10147400DCE7A2699A4201DC0A29E4D12246284623
:1014840000F0E1F90130E2D1CEE7013EDFE7236865
:101494005A1C22600A221A70E9E70000024B014636
:1014A4001868FFF7A5BF00BF1800002002440346D8
:1014B400934200D1704703F8011BF9E770B50D4D55
:1014C4000D4C641BA4100026A64209D10B4D0C4CF4
:1014D40000F006FD641BA4100026A64205D170BDD1
:1014E40055F8043B98470136EEE755F8043B984716
:1014F4000136F2E7441F0008441F0008441F000897
:10150400481F0008704770477047000070B50F4EC1
:101514000C463168054611B900F0E2FA3060214604
:10152400284600F0DDFA431C03D14FF0FF34204677
:1015340070BDC41C24F00304A042F8D0211A28462C
:1015440000F0CEFA0130F2D1EFE700BF180200201C
:101554002DE9F843CD1C25F0030508350C2D38BFC3
:101564000C25002D064601DBA94204D90C23336067
:101574000020BDE8F883DFF8D48000F015F9D8F82E
:1015840000301C4644BB29463046FFF7BFFF431CCE
:10159400044658D1D8F800402746002F43D1002CE8
:1015A4004BD023683946304604EB030900F098FA1F
:1015B400814542D121686D1A29463046FFF7A6FFBE
:1015C40001303AD023682B442360D8F800305A689D
:1015D40062BBC8F800700FE02268521B20D40B2AAB
:1015E40017D96119A342256018BF5960636808BF01
:1015F400C8F8001062514B60304600F0DBF804F18B
:101604000B00231D20F00700C21A1CBF1B1AA35095
:10161400AFE76268A3420CBFC8F800205A60EBE74A
:1016240023466468AEE73C467F68B6E71A465B68C3
:10163400A342FBD100235360DEE70C233360304622
:1016440000F0B8F894E70560D6E700BF1C0200205C
:10165400B1F90C202DE9F041170705460C4656D484
:101664004B68002B02DC0B6C002B3DDDE66A002E80
:101674003AD0002312F480522F68216A2B6025D0BF
:10168400626DA389580705D56368D21A636B0BB1E1
:10169400236CD21A216AE66A00232846B047411C0B
:1016A40024D00023636023692360A389DA0400D56E
:1016B4006065616B2F60B9B104F14403994202D0B3
:1016C400284600F02FFA002363630DE00123284627
:1016D400B047461C0246D4D12B68002BD1D01D2B19
:1016E40001D0162B2BD12F6000202FE02A68B4F9EB
:1016F4000C3042B11D2A01D0162A22D10023636086
:1017040023692360D5E7626022692260CEE70F690E
:10171400002FE9D093070E6808BF4B690F6018BF0C
:101724000023A6EB07088B60B8F1000FDCDD216A0B
:10173400A66A43463A462846B047002808DCB4F96E
:101744000C3043F04003A3814FF0FF30BDE8F0813B
:101754000744A8EB0008E7E738B50B6905460C46D3
:1017640013B90025284638BD18B1036A0BB9FFF731
:1017740009FEB4F90C30002BF3D0626ED00704D408
:10178400990502D4A06DFFF7BEFE28462146FFF757
:101794005FFF636EDA070546E4D4A3899B05E1D4B1
:1017A400A06DFFF7B1FEDDE70148FFF7ACBE00BF57
:1017B400140200200148FFF7A7BE00BF1402002056
:1017C40010B50C46B1F90E1000F078F90028ABBF43
:1017D400636DA3891B1823F48053ACBF6365A38195
:1017E40010BD2DE9F0411F468B89DB0505460C46EB
:1017F400164605D5B1F90E100223002200F04CF96B
:10180400A389B4F90E1023F48053A38132463B46D6
:101814002846BDE8F04100F073B910B50C46B1F9A3
:101824000E1000F039F9431CA38915BF606523F439
:10183400805343F48053A38118BFA38110BDB1F931
:101844000E1000F0F7B8F8B50E461446054618B168
:10185400036A0BB9FFF796FDA369A360A3891A076E
:1018640001D5236943B92146284600F02BF818B165
:101874004FF0FF373846F8BD23682269981A636928
:10188400F6B28342374605DC21462846FFF764FF5B
:101894000028EDD1A368013BA36023685A1C226091
:1018A4001E706269431C9A4204D0A389DB07E1D508
:1018B4000A2EDFD121462846FFF74EFF0028D9D053
:1018C400D6E7000038B5294B054618680C4618B110
:1018D400036A0BB9FFF756FDB4F90C30190722D48B
:1018E400DA0607D409222A6043F04003A3814FF0AB
:1018F400FF3033E0580712D5616B41B104F1440362
:10190400994202D0284600F00DF900236363A389AD
:1019140023F02403A3810023636023692360A38944
:1019240043F00803A38123694BB9A38903F420730B
:10193400B3F5007F03D02146284600F03FF8B4F900
:101944000C3013F001020AD00022A26062695242F4
:10195400A261226942B913F08000C5D138BD99074C
:1019640058BF6269A260F4E70020F7E7180000207E
:1019740070B50C46B1F90E10002996B015461E46F6
:101984000DDAA38913F0800F4FF0000114BF402338
:101994004FF48063002031602B6016B070BD6A463E
:1019A40000F058F80028ECDB019901F47041A1F52E
:1019B4000053594259414FF48063EBE78B89F7B5E3
:1019C4009D0706460C4607D504F1470323602361AF
:1019D4000123636103B0F0BD01AB6A46FFF7C8FFA2
:1019E400009F054639463046FFF7B2FD48B9B4F9C1
:1019F4000C309A05EED423F0030343F00203A381D1
:101A0400E2E7A389206043F08003A381019BC4E93A
:101A140004075BB1B4F90E10304600F02DF828B17C
:101A2400A38923F0030343F00103A381A3891D4386
:101A3400A581CFE738B5064D0023044608462B6040
:101A440000F0BAF8431C02D12B6803B1236038BDFF
:101A54002002002038B5074D0023044608461146ED
:101A64002B6000F0B1F8431C02D12B6803B1236052
:101A740038BD00BF2002002038B5064D00230446BF
:101A840008462B6000F0A8F8431C02D12B6803B170
:101A9400236038BD2002002038B5074D04460846AF
:101AA400114600222A601A4600F09EF8431C02D117
:101AB4002B6803B1236038BD2002002038B5074DE0
:101AC40004460846114600222A601A4600F094F89B
:101AD400431C02D12B6803B1236038BD20020020CF
:101AE40038B5064D0023044608462B6000F08CF8F8
:101AF400431C02D12B6803B1236038BD20020020AF
:101B040038B5074D04460846114600222A601A4695
:101B1400FEF71EFC431C02D12B6803B1236038BDC1
:101B24002002002038B50546002941D051F8043C74
:101B34000C1F002BB8BFE418FFF736FE1D4A1368CC
:101B440033B9636014602846BDE83840FFF732BEFD
:101B5400A34208D9206821188B4201BF19685B6829
:101B640009182160EDE71A465B680BB1A342FAD964
:101B740011685018A0420BD12068014450188342C8
:101B84001160E0D118685B68536008441060DAE7BC
:101B940002D90C232B60D6E7206821188B4204BF9E
:101BA40019685B68636004BF091821605460CAE760
:101BB40038BD00BF1C020020024B58221A604FF0AF
:101BC400FF30704720020020024B58221A604FF069
:101BD400FF30704720020020024B58221A60002078
:101BE400704700BF20020020024B58221A604FF0B9
:101BF400FF30704720020020024B58221A604FF039
:101C0400FF30704720020020044A05491368002B66
:101C140008BF0B4618441060184670472402002081
:101C2400280200202DE9F047089D0C46002B4ED1D8
:101C340094468C458646B2FA82F262D94AB1C2F120
:101C44002003914020FA03F30CFA02FC194300FA32
:101C540002FE4FEA1C471FFA8CF6B1FBF7F44FEA79
:101C64001E4307FB141143EA014304FB06F19942A6
:101C74000AD91CEB030304F1FF3080F0128199426E
:101C840040F20F81023C6344591A1FFA8EF3B1FBF0
:101C9400F7F007FB101143EA014300FB06F69E42EE
:101CA4000AD91CEB030300F1FF3180F0FC809E4253
:101CB40040F2F980634402389B1B40EA044000214F
:101CC4001DB1D3400022C5E90032BDE8F0878B4244
:101CD40005D90DB1C5E9000100210846F5E7B3FABD
:101CE40083F1002946D1A34202D39042C0F0F08090
:101CF400861A64EB03030120002DE6D0C5E90063D6
:101D0400E3E7002A40F09080A1EB0C044FEA1C4862
:101D14001FFA8CF70121B4FBF8F64FEA1E4308FBC7
:101D2400164443EA044307FB06F0984208D91CEB27
:101D3400030306F1FF3402D2984200F2CD80264616
:101D44001C1A1FFA8EF3B4FBF8F008FB104443EAA4
:101D5400044300FB07F79F4208D91CEB030300F17F
:101D6400FF3402D29F4200F2B0802046DB1B40EADF
:101D74000640A5E7C1F120068B4022FA06F71F436F
:101D840020FA06FC04FA01F343EA0C03F44000FAD7
:101D940001F8380C4FEA1349B4FBF0FE1FFA87FC34
:101DA40000FB1E4449EA04440EFB0CF9A14502FA67
:101DB40001F20AD93C190EF1FF3A80F08480A14562
:101DC40040F28180AEF1020E3C44A4EB09041FFAF8
:101DD40083F9B4FBF0F300FB134449EA044403FB26
:101DE4000CFCA44507D93C1903F1FF3067D2A44584
:101DF40065D9023B3C4443EA0E40A0FB0293A4EBAA
:101E04000C049C42CE469C4651D34ED055B1B8EBFF
:101E14000E0364EB0C0404FA06F6CB401E43CC40DC
:101E2400C5E90064002150E7C2F1200320FA03F160
:101E34000CFA02FC24FA03F394400C434FEA1C48C6
:101E440000FA02FE1FFA8CF7B3FBF8F008FB10311E
:101E5400230C43EA014300FB07F1994208D91CEB28
:101E6400030300F1FF362CD299422AD90238634485
:101E74005B1AA4B2B3FBF8F108FB113344EA034440
:101E840001FB07F3A34208D91CEB040401F1FF365C
:101E940013D2A34211D902396444E41A41EA00413D
:101EA40039E70446F0E6084606E7C845AED2B9EB82
:101EB400020E63EB070C0138A8E73146EDE7034651
:101EC40099E73046D4E7D6467FE7634402384DE7C6
:101ED4000646234608460FE7023E634430E700BF48
:101EE400F8B500BFF8BC08BC9E467047F8B500BF03
:081EF400F8BC08BC9E467047D3
:101EFC0053756363657373210D0000004661696C53
:101F0C00757265210D00000048656C6C6F2C207794
:101F1C006F726C64210000000000000001020304D9
:101F2C00000000000000000001020304060708097D
:081F3C00ECFCFF7F0100000036
:041F4400150200087A
:041F4800F10100089B
:101F4C000024F4000100000010000000000000005C
:101F5C0003000000D80000201C000020000000003E
:101F6C00D800002040010020A80100200000000043
:101F7C000000000000000000000000000000000055
:101F8C000000000000000000000000000000000045
:101F9C000000000000000000000000000000000035
:081FAC0000000000000000002D
:040000050800121DC0
:00000001FF
